:020000040800F2
:10000000C85A00205D020008553E0008F130000883
:100010004B3C0008790D0008ED4E00080000000080
:100020000000000000000000000000009D0100082A
:10003000350E000800000000F9010008E94400083E
:1000400077020008770200087702000877020008AC
:10005000770200087702000877020008770200089C
:10006000770200087702000877020008770200088C
:10007000770200087702000877020008770200087C
:10008000770200087702000877020008770200086C
:10009000770200087702000877020008770200085C
:1000A000770200083546000877020008770200084A
:1000B000770200087702000877020008770200083C
:1000C000770200087702000877020008770200082C
:1000D00077020008394E000877020008494E0008F0
:1000E000770200087702000877020008770200080C
:1000F00077020008770200087702000877020008FC
:1001000077020008770200087702000877020008EB
:1001100077020008770200087702000877020008DB
:1001200077020008770200087702000877020008CB
:1001300077020008000000000000000077020008BD
:1001400077020008770200087702000877020008AB
:10015000770200087702000877020008770200089B
:10016000770200087702000877020008770200088B
:10017000770200087702000800000000000000007D
:100180007702000877020008DFF80CD000F0B4FC1A
:1001900000480047517E0008C85A00202C4B1968BF
:1001A0000868B0E8F04F80F30988BFF36F8F4FF015
:1001B000000080F3118870470000000008480068C4
:1001C000006880F308884FF0000080F3148862B65E
:1001D00061B6BFF34F8FBFF36F8F00DF00BF00BF6B
:1001E00008ED00E0DFF80C00016841F470010160E7
:1001F000704700BF88ED00E0EFF30980BFF36F8F19
:10020000134B1A681EF0100F08BF20ED108A20E96A
:10021000F04F106009B44FF0500080F31188BFF325
:100220004F8FBFF36F8F0AF0A9FE4FF0000080F3ED
:10023000118809BC19680868B0E8F04F1EF0100F6B
:1002400008BFB0EC108A80F30988BFF36F8F704746
:1002500028000020EFF30580704700000648804723
:1002600006480047FEE7FEE7FEE7FEE7FEE7FEE79B
:10027000FEE7FEE7FEE7FEE7D1450008890100083A
:100280002DE9F05F0546002092469B4688460646CB
:10029000814640241BE0284641464746224600F05E
:1002A0009EFA53465A46C01A914110D31146184639
:1002B000224600F085FA2D1A67EB01084F462246C8
:1002C0000120002100F07CFA17EB00094E41201EAE
:1002D000A4F10104DFDC484631462A464346BDE826
:1002E000F09F10B5431A934209D28318881803E08F
:1002F00010F8011D03F8011D521EF9D210BD40EA8D
:1003000001039B0703D009E008C9121F08C0042A93
:10031000FAD203E011F8013B00F8013B521EF9D27A
:1003200010BDD2B201E000F8012B491EFBD270478C
:100330000022F6E710B513460A4604461946FFF7B1
:10034000F0FF204610BD421C10F8011B0029FBD114
:10035000801A704770B5064604F0E0FF0468054651
:100360000A220021304600F06AFA2C6070BD2DE9A7
:10037000FE4F804681EA0300C00F0C46009021F03A
:10038000004123F00045B8EB0200A94105D24046E8
:10039000214690461C460B46024623F0004010437F
:1003A00047D0270DC7F30A00C3F30A510290401A41
:1003B000019040286BDAC3F3130040F4801B0098CF
:1003C000924620B10023D2EB030A63EB0B0B01989A
:1003D0005946C0F14002504600F0F2F906460D467B
:1003E00050465946019A00F00AFA10EB08006141A4
:1003F000002487EA115284EAE7731A4340D0009A36
:1004000062B3019A012A4FEA075215DC001B61EB27
:1004100002014FF0004202EA0752CDE90042001CFF
:1004200041F5801132462B4600F087FA03B0BDE853
:10043000F08F40462146F9E7001B61EB0201001CEA
:1004400041F5801300185B412018A2F5001747EB17
:10045000030140EAD570B6196D4111E06D084FEA0D
:10046000360645EAC0754FEA0752001B61EB0201F0
:10047000001C41F5801149084FEA30000019514134
:1004800032462B4603B0BDE8F04F00F047BA009863
:10049000012240000023D0EB020263EBE0730098DE
:1004A00021464FEAE074B8EB000061EB0401E9E794
:1004B00083F000435BE781F0004158E72DE9FE4FF0
:1004C00081EA030404F0004421F0004100944FF05D
:1004D000000B23F0004350EA01045ED052EA03040B
:1004E0005BD0C3F30A54C1F30A552C44A4F2F3348D
:1004F0000194A0FB0254C1F3130141F48011C3F332
:10050000130343F4801301FB024400FB034E840AEF
:10051000970A44EA815447EA8357A4FB0768029587
:100520008D0A05FB07854FEA932C04FB0C54270525
:10053000029D4FEA065847EA1637B5EB08056EEB01
:10054000070C870E920E47EA811742EA8312A7FB37
:100550000201B6EB0B0164EB00042B0D43EA0C33F4
:100560005E1844EB1C50DA465146E7FB0201C5F326
:1005700013044FEA0B3343EA14534FEA0432019C4D
:1005800043EA0603A4F10C040294009CCDE900B4F4
:1005900000F0D3F903B0BDE8F08F00200146F9E781
:1005A0002DE9F04D81EA030404F0004B21F00045F1
:1005B00014464FF0000A23F0004150EA050220D013
:1005C00054EA01021DD0C5F30A570246C5F31303CE
:1005D000C1F31300C1F30A5640F4801543F48013AD
:1005E000A7EB0608101BD64608F2FD3873EB050092
:1005F00002D308F1010801E092185B41B8F1000F45
:1006000003DA00200146BDE8F08D00204FF4801190
:10061000064684460EE0171B73EB050705D3121B35
:1006200063EB050306434CEA010C49084FEA30002E
:1006300092185B4150EA0107EDD152EA030012D053
:1006400082EA040083EA0501084305D0101BAB4190
:1006500006D20122002306E000224FF0004302E010
:100660006FF0010253101AEB06004CEB085110EB2F
:100670000A0041EB0B01BDE8F04D00F04FB90EB59B
:1006800040F2334102910021CDE900110A460B46A8
:1006900000F053F903B000BD70B5C1F30A5201F088
:1006A00000450024C1F3130140F2FF3341F48011EF
:1006B0009A4201DA002070BD40F233439A42A2F21E
:1006C000334203DC524200F08AF800E090402C43B1
:1006D000F1D0404270BD00F0004230F000400AD03E
:1006E000C10D01F56071C0F3160042EA0151C20864
:1006F00040071143704700200146704730B5041E83
:1007000071F1000404DB4FF00044404264EB01014E
:10071000141E73F1000405DB1C464FF000435242E7
:1007200063EB04038B4208BF824230BD30B5041E28
:1007300071F1000404DB4FF00044404264EB01011E
:10074000141E73F1000405DB1C464FF000435242B7
:1007500063EB0403994208BF904230BD01F00043AF
:1007600030B421F0004150EA010206D00A0DA2F592
:100770006072C1F31301002A02DC30BC0020704714
:10078000440F44EAC104C100E01830BC00EBC25081
:1007900000F08DB830B50B46014600202022012420
:1007A00009E021FA02F59D4205D303FA02F5491B3F
:1007B00004FA02F52844151EA2F10102F1DC30BD55
:1007C000202A04DB203A00FA02F100207047914011
:1007D000C2F1200320FA03F3194390407047202A06
:1007E00004DB203A21FA02F00021704721FA02F3DB
:1007F000D040C2F120029140084319467047202A98
:1008000006DBCB17203A41FA02F043EAE07306E038
:1008100041FA02F3D040C2F1200291400843194648
:1008200070473A2800D2303820F02002412A01D304
:10083000A2F13700884201D34FF0FF3070472DE915
:10084000F04791460F4680460446002614F8015BA7
:100850002DB100F063F90068405DC007F6D12B2D83
:1008600002D02D2D18D0641E4A463946204600F08D
:1008700059F927B13968A14201D1C7F80080710543
:100880004FF002040BD54042002803DD04F046FD82
:100890000460A007BDE8F08746F48066E4E700281E
:1008A000F8DA04F03BFD04606FF00040F2E7002945
:1008B000A8BF7047401C490008BF20F001007047E6
:1008C00010B4B0FA80FC00FA0CF050EA010404BF46
:1008D00010BC704749B1CCF1200421FA04F411FA9C
:1008E0000CF118BF012121430843A3EB0C01CB1DE0
:1008F0004FEA00614FEA102042BF002010BC704751
:1009000000EBC35010440029A4BF10BC7047401C2A
:10091000490008BF20F0010010BC704710B5141E3C
:1009200073F1000408DA401C41F1000192185B41A8
:100930001A4301D120F0010010BD2DE9F04D92467F
:100940009B4611B1B1FA81F202E0B0FA80F2203296
:100950009046FFF735FF04460F4640EA0A0041EA99
:100960000B0153465A46084313D0114653EA01007F
:1009700019D0C8F140025046FFF731FF05460E4638
:10098000504659464246FFF71BFF084305D0012059
:1009900004E020463946BDE8F08D0020054346EAD4
:1009A000E0762C4337430A986305E40AA0EB08007D
:1009B0000022FD0A44EA47540A3002D500200146CD
:1009C000E9E7010510196941DDE9084500196941A8
:1009D000BDE8F04DA2E770B521F0004303430CD011
:1009E000C1F30A550024D5EB040564EB0403D617C4
:1009F000AD1AB34102DB0020014670BD201841EB67
:100A0000025170BD2DE9F04D00231A461B1A8A4190
:100A100003DB00200146BDE8F08DC1F30A52C1F3AB
:100A2000130141F480154FF0000BD10702D10018DB
:100A30006D41521E0027044640F2FF11384601EB7B
:100A4000620A3E468046024600204FF48011FFF7BE
:100A5000C6FEC2197141BB1846EB0100B4EB030C92
:100A600075EB000C04D3E41A65EB000517460E463F
:100A7000241908F101006D4180463428E3DDF9199D
:100A800046EB0600091BA84103D24FF0FF32134684
:100A900001E0002213461BEB070046EB0A51BDE8BC
:100AA000F04DFFF73BBF0EB5C10F80EAE070084480
:100AB000CA07002140F233438DE80E000A460B4678
:100AC000FFF73BFF03B000BDC1F30A52C1F31301AE
:100AD00040F2FF3341F480119A4202DA00200146CD
:100AE000704740F233439A42A2F2334202DC524250
:100AF000FFF775BEFFF764BE064C074D06E0E068E1
:100B000040F0010394E8070098471034AC42F6D354
:100B1000FFF73EFB00E8000820E8000800487047A7
:100B2000BCE600082DE9F05F8246007800271546F4
:100B30008B460AF10104B946302801D09DB113E07B
:100B400014F8010B0127782803D0582801D045B1AB
:100B50000AE00DB1102D07D10027102514F8010B64
:100B600002E0082500E00A250026B0460EE005FB5D
:100B7000080005FB06F1012701EB10461FFA80F87B
:100B8000B6F5803F00D3B94614F8010B2946FFF7AC
:100B900048FE0028EBDABBF1000F05D00FB1641E50
:100BA00000E05446CBF80040B9F1000F06D004F045
:100BB000B5FB02210160C81EBDE8F09F48EA06406F
:100BC000FAE770B58C1810F8015B15F0070301D136
:100BD00010F8013B2A1106D110F8012B03E010F8A0
:100BE000016B01F8016B5B1EF9D12B0705D40023C3
:100BF000521E0DD401F8013BFAE710F8013BCB1A65
:100C0000921C03E013F8015B01F8015B521EF9D559
:100C1000A142D8D3002070BD55494A6822F4403221
:100C20004A604A6843681A434A600268526822F47C
:100C3000807203685A6002685368026943EA0222BC
:100C400003685A600268526822F0407203685A6072
:100C50000268526883681A4303685A60026892689F
:100C600022F4006203689A6002689268C3681A43BB
:100C700003689A603F4B826A9A4218D00268926871
:100C800022F0706203689A6002689268836A1A436D
:100C900003689A600268926822F0405203689A6082
:100CA00002689268C36A1A4303689A600BE002689C
:100CB000926822F0706203689A600268926822F07B
:100CC000405203689A600268926822F00202036848
:100CD0009A6002689368027E43EA420203689A605F
:100CE0002022125CA2B10268526842F400620368DA
:100CF0005A600268526822F4604203685A600268CF
:100D00005368426A521E43EA423203685A6005E061
:100D10000268526822F4006203685A600268D26A6C
:100D200022F470020368DA620268D36A828B521E70
:100D300043EA02520368DA620268926822F400729F
:100D400003689A600268936890F8302043EA422270
:100D500003689A600268926822F4806203689A606D
:100D600002689368426943EA822203689A60704786
:100D7000002301400100000F00BFFEE710B5002274
:100D8000D1E907341A1BCB690B62BC24235803EB4F
:100D9000D374B2EB640F02DDBC231B58D21ABC24FF
:100DA000235803EBD37464106442944202DDBC23E5
:100DB0001B581A44D0ED100A00EE102AB8EEC00AF3
:100DC00030EE800A80ED100A91ED090A80ED040AE8
:100DD00090ED040A10BD000000F0AAF800BF00F07A
:100DE0000FFC0446A51B26460E480068406A4FF6D5
:100DF000FF72101A81B22A460B4804F02DF80B48F6
:100E00000068406A81B22A4607482C3004F024F872
:100E100002F01EFF2946064806F0F4FE0A2007F0FD
:100E200066F8DCE7F0060020B849002070070020D3
:100E3000A04900207047000002F040FA072002F0AD
:100E4000A1FB09F02FFA002009F01CFA002108206C
:100E500009F092FA01232E4806C82EA009F032FBB1
:100E60001A211E2009F088FA01232C4806C82CA05C
:100E700009F028FB2C211E2009F07EFA01232748C7
:100E800006C829A009F01EFB09F07CFA4FF47A701D
:100E900007F02DF800BF002002F074FB4FF4FA7049
:100EA00007F025F8012002F06DFB4FF4FA7007F00F
:100EB0001EF8022002F066FB4FF4FA7007F017F8F4
:100EC000032002F05FFB4FF4FA7007F010F80420E3
:100ED00002F058FB4FF4FA7007F009F8052002F011
:100EE00051FB4FF4FA7007F002F8062002F04AFBBB
:100EF0004FF4FA7006F0FBFF072002F043FB4FF4BB
:100F0000FA7006F0F4FF142006F0F1FFC3E70000CA
:100F1000A80000204D617A65426F7400A000002097
:100F2000427920596C740000323030353230000084
:100F300000216348C0F8CC100121C0F89C110020AA
:100F40006049087600215F4880F844100020B2E034
:100F5000012100EB800202EBC002594B03EB0212AD
:100F600011724FF6FF7200EB800101EBC00103EB41
:100F70000111C1F8BC2000EB400101EBC001514A56
:100F800002EB8101097E00297DD1022100EB800264
:100F900002EBC00203EB021211609FED4B0A00EB63
:100FA000800101EBC0011A4602EB011181ED0B0A31
:100FB0009FED460A00EB800101EBC00102EB01113D
:100FC00081ED0C0A9FED420A00EB800101EBC001AC
:100FD00002EB011181ED0F0A9FED3D0A00EB80014C
:100FE00001EBC00102EB011181ED070A9FED390A07
:100FF00000EB800101EBC00102EB011181ED180A49
:101000009FED350A00EB800101EBC00102EB0111FD
:1010100081ED170A9FED310A00EB800101EBC00161
:1010200002EB011181ED250A9FED2D0A00EB8001F5
:1010300001EBC00102EB011181ED090A9FED280AC5
:1010400000EB800101EBC00102EB011181ED0A0A06
:101050009FED200A00EB800101EBC00102EB0111C2
:1010600081ED050A00EB800101EBC00102EB0111EB
:1010700091ED0A0A00EB800101EBC00102EB0111C6
:1010800081ED150A00E014E09FED150A00EB8001E8
:1010900001EBC00102EB011181ED140A9FED110A71
:1010A00000EB800101EBC00102EB011181ED240A8C
:1010B00000E003E0401C0228FFF64AAF00BF704783
:1010C000104A0020B84900209A99993FCDCCCC3DD8
:1010D00000007A4400000000AE47E13DCDCC4C3F1B
:1010E00000004842000020C37047000038B50246A7
:1010F0000020009000BF92F83C00012801D102209E
:1011000038BD012082F83C0000BF0868092816D9C4
:101110001068C0680C780A3C04EB44050724AC4016
:10112000A0431468E0600C780A3C04EB440488682F
:10113000A0401468E46820431468E06013E010687D
:1011400000690C7804EB44050724AC40A043146804
:1011500020610C7804EB44048868A040146824697A
:101160002043146820614868072817D21068406B34
:101170000C79641E04EB84051F24AC40A043146862
:101180006063088880B20C79641E04EB8404A0407C
:101190001468646B20431468606331E048680D286C
:1011A00017D21068006B0C79E41F04EB84051F2430
:1011B000AC40A04314682063088880B20C79E41F17
:1011C00004EB8404A0401468246B2043146820635B
:1011D00016E01068C06A0C790D3C04EB84051F24EE
:1011E000AC40A0431468E062088880B20C790D3CE2
:1011F00004EB8404A0401468E46A20431468E062AD
:10120000194B1A4C1068A04206D10868122803D165
:10121000586840F480005860144C1068A0421CD1FB
:101220000868102802D00868112816D1586840F4C0
:1012300000005860086810280FD10D4800680D4C58
:10124000B0FBF4F000EB80004000009002E000985A
:10125000401E009000980028F9D100BF002082F8BD
:101260003C0000BF00BF4BE70023014000200140CD
:101270002400002040420F0070B5044600250CB940
:10128000012070BD1549A06A884200D000BF206CC3
:1012900030B9204600F024F80020606484F83C0057
:1012A000206C00F0100088B9206C20F4885040F0C9
:1012B000020020642046FFF7AFFC00206064206C31
:1012C00020F0020040F00100206400E0012500BF92
:1012D000002084F83C0000BF2846D2E70100000F40
:1012E00010B586B00446142101A8FFF721F825495E
:1012F0002068884244D100BF002000902248006846
:1013000040F48070204908600846006800F480704E
:10131000009000BF00BF00BF002000901A481438A2
:10132000006840F004001849143908600846006855
:1013300000F00400009000BF00BF00BF002000903C
:101340000846006840F0010008600846006800F0A8
:101350000100009000BF00BF0E200190032002900A
:101360000020039001A9094800F03CF807200190F3
:10137000032002900020039001A9054800F032F8F4
:1013800006B010BD00200140443802400008024071
:1013900000000240014691F83500022803D0802069
:1013A000486501207047052081F83500086800680D
:1013B00020F001000A6810600020F3E770B50446D1
:1013C00000F01EF906462546681C10B10448007856
:1013D000054400BF00F014F9801BA842FAD370BD89
:1013E00020000020F8B502460B460025002400200E
:1013F0000021DCE0012606FA01F51E6806EA050474
:10140000AC4273D15E68022E02D05E68122E13D1F8
:10141000CF0802F1200656F827004E07F70E0F26D8
:10142000BE40B0434F07FF0E1E69BE403043CF0899
:1014300002F1200646F8270010684F000326BE4040
:10144000B0431E7906F003064F00BE4030431060E3
:101450005E68012E08D05E68022E05D05E68112EEF
:1014600002D05E68122E13D190684F000326BE4052
:10147000B0434F00DE68BE403043906050680126A4
:101480008E40B0431E79C6F300168E403043506044
:10149000D0684F000326BE40B0434F009E68BE4058
:1014A0003043D0605E6806F08056B6F1805F7DD133
:1014B00000BF00260096404E366846F480463E4FF8
:1014C0003E603E46366806F48046009600BF00BF88
:1014D0003A4E8F0856F827008E07370F0F26BE406A
:1014E000B043374EB24202D1002624E05EE0354ED2
:1014F000B24201D101261EE0334EB24201D1022692
:1015000019E0324EB24201D1032614E0304EB2420D
:1015100001D104260FE02F4EB24201D105260AE088
:101520002D4EB24201D1062605E02C4EB24201D129
:10153000072600E008268F073F0FBE4030431F4EAE
:101540008F0846F82700264E3068A0435E6806F4F0
:101550008036B6F5803F00D12043214E3060361DE5
:101560003068A0435E6806F40036B6F5003F00D14F
:1015700020431B4E361D3060361D3068A0435E6828
:1015800006F48016B6F5801F00D12043144E0836AD
:101590003060361D3068A0435E6806F40016B6F56C
:1015A000001F00D120430E4E0C363060491C10291C
:1015B000FFF420AFF8BD0000443802400838014075
:1015C000000002400004024000080240000C0240FB
:1015D000001002400014024000180240001C0240AB
:1015E000003C0140024613690B400BB1012000E0B2
:1015F000002070470AB1816101E00B0483617047EC
:1016000001480068704700001800002070B50446CB
:101610000CB9012070BD94F83D0028B9002084F871
:101620003C00204600F052FA242084F83D00206857
:10163000006820F001002168086000F06FFC05469A
:101640005C496068884206D85B48854201D2012027
:1016500007E0002005E05948854201D2012000E062
:101660000020012800D1D5E75548B5FBF0F62068E9
:10167000406820F03F003043216848604D49606871
:10168000884201D8701C07E04FF4967070434FF405
:101690007A71B0FBF1F0401C2168096A21F03F012A
:1016A00008432168086243496068884214D8681E6C
:1016B00061684900B0FBF1F0401CC0F30B00042846
:1016C00001D204203DE0681E61684900B0FBF1F0E2
:1016D000401CC0F30B0034E0A06838B9681E616894
:1016E00001EB4101B0FBF1F0401C0AE0681E6168AB
:1016F00001EBC10202EB0111B0FBF1F0401C40F420
:101700008040C0F30B0008B901201AE0A06848B976
:10171000681E616801EB4101B0FBF1F0401CC0F3B1
:101720000B000CE0681E616801EBC10202EB0111C5
:10173000B0FBF1F0401CC0F30B0040F4804040F4DB
:1017400000402168C9694CF6FF7291430843216843
:10175000C861D4E9070108432168096821F0C00184
:10176000084321680860D4E90310084321688968A8
:1017700048F2FF329143084321688860D4E90501AB
:1017800008432168C96821F0FF0108432168C86047
:101790002068006840F00100216808600020206493
:1017A000202084F83D000020206384F83E0000BF24
:1017B00030E70000A086010080841E0000093D0083
:1017C00040420F002DE9F84F04460F4690461E4652
:1017D000FFF716FF05464FF0010994F83D00202859
:1017E0007ED1192301225E492046009501F0F2FDC9
:1017F00010B10220BDE8F88F00BF94F83C0001282A
:1018000001D10220F6E7012084F83C0000BF2068E7
:10181000006800F0010028B92068006840F001006D
:10182000216808602068006820F400602168086072
:10183000242084F83D00002020644A48E06200BF74
:101840002068006840F480702168086033460022F8
:101850004FF001112046009501F0BCFD08B10120B8
:10186000C8E707F0FE0021680861FFF7C9FE0546DA
:1018700020684069C0F3400A20684069C0F3802BAB
:1018800010E0FFF7BDFE401BB04200D816B9A02003
:1018900084F83D0020684069C0F3400A2068406930
:1018A000C0F3802B94F83D00A02805D0BAF1000FBA
:1018B00002D1BBF1000FE4D0202084F83D00206865
:1018C0004069C0F3400028B32068006840F400700D
:1018D0002168086000BF002000902068406900E097
:1018E0003BE0009020688069009000BF00BF192392
:1018F00001221B492046009501F06CFD08B1012032
:1019000078E7202084F83D0000BF002084F83C00E8
:1019100000BF6FE72068006840F40070216808602D
:101920006FF4806021684861192301220C49204628
:10193000009501F04FFD08B101205BE709F10109B5
:10194000C145FFF47DAF202084F83D0000BF00209A
:1019500084F83C0000BF01204CE702204AE7000069
:10196000020010000000FFFF2DE9FC5F04460F4657
:1019700090469946DDE90CAB0E9EFFF741FE054609
:1019800094F83D0020287DD1192301224D4920469D
:10199000009501F01FFD10B10220BDE8FC9F00BFC3
:1019A00094F83C00012801D10220F6E7012084F8D8
:1019B0003C0000BF2068006800F0010028B92068E2
:1019C000006840F00100216808602068006820F489
:1019D000006021680860212084F83D00402084F8E0
:1019E0003E0000202064C4F824A0A4F82AB0608D32
:1019F00020853548E0624B46424639462046CDE9CF
:101A0000006501F0F5FB08B10120C6E731E02A4688
:101A10003146204601F083FD50B1206C042805D1E9
:101A20002068006840F40070216808600120B4E775
:101A3000606A007821680861606A401C6062208DDD
:101A4000401E2085608D401E608520684069C0F37F
:101A5000800070B1208D60B1606A007821680861F3
:101A6000606A401C6062208D401E2085608D401E93
:101A70006085208D0028CAD12A463146204601F0D3
:101A80007BFC00E01CE050B1206C042805D12068EC
:101A9000006840F400702168086001207DE720683C
:101AA000006840F4007021680860202084F83D0040
:101AB000002084F83E0000BF84F83C0000BF6CE7C3
:101AC00002206AE7020010000000FFFF10B586B098
:101AD0000446142101A8FEF72BFC1B49206888420C
:101AE00030D100BF002000901848006840F002008C
:101AF000164908600846006800F00200009000BF28
:101B000000BF4FF44070019012200290012003901A
:101B1000032004900420059001A90D48FFF762FC02
:101B200000BF0020009009481030006840F4001009
:101B30000649103108600846006800F40010009063
:101B400000BF00BF06B010BD005400403038024056
:101B50000004024003480068034909780844014929
:101B600008607047180000202000002010B50D48C4
:101B7000006840F400700B4908600846006840F4B3
:101B8000806008600846006840F4807008600320A8
:101B900000F0C8F8002000F007F800F04BF8002033
:101BA00010BD0000003C024070B588B0044600251E
:101BB000002600222146192000F076F8192000F0B6
:101BC00063F800BF002001901648006840F4003020
:101BD000144908600846006800F40030019000BF16
:101BE00000BF02A903A800F071F900F0A7F94500B1
:101BF0000D48B5FBF0F0461E0C480D49086040F258
:101C0000E7310B48C160466000210161816000F04E
:101C1000D5FC20B9064800F005FD08B070BD0120D4
:101C2000FBE700004438024040420F0000440140FE
:101C3000B006002008B500BF0020009011480068E1
:101C400040F480400F4908600846006800F4804076
:101C5000009000BF00BF00BF00200090081F006878
:101C600040F08050091F08600846006800F080506E
:101C7000009000BF00BF00220F21901E00F014F85A
:101C800008BD00004438024001460846002809DB30
:101C900000F01F0301229A4043099B0003F1E02357
:101CA000C3F8002100BF70472DE9F05F80460D4664
:101CB0001646002703F016FB074639462A463346E8
:101CC00001F00700C0F1070ABAF1040F02D94FF082
:101CD000040A01E0C0F1070AD14600F1040ABAF192
:101CE000070F02D24FF0000A01E0A0F1030AD44628
:101CF0004FF0010A0AFA09FAAAF1010A0AEA020AED
:101D00000AFA0CFA4FF0010B0BFA0CFBABF1010BCA
:101D10000BEA030B4AEA0B042146404603F0EAFAB9
:101D2000BDE8F09F00BF00F00702064B19684FF6B0
:101D3000FF031940044B0B4343EA0221014B196096
:101D400000BF70470CED00E00000FA0570B50446D6
:101D50000D460CB9012070BD5848006800F00F0016
:101D6000A84209D255490D700846006800F00F00DE
:101D7000A84201D00120EEE7207800F002000228FE
:101D80001DD1207800F00400042805D14C480068DB
:101D900040F4E0504A490860207800F00800082824
:101DA00005D14748006840F4604045490860444810
:101DB000006820F0F000A1680843414908602078DD
:101DC00000F00100A8B36068012807D13C4808383A
:101DD0000068C0F34040B8B90120BCE76068022841
:101DE00002D06068032807D1354808380068C0F37E
:101DF000406048B90120AEE7314808380068C0F3B8
:101E0000400008B90120A6E72D48006820F0030033
:101E1000616808432A490860FFF7F2FB064609E0BB
:101E2000FFF7EEFB801B41F28831884202D9032084
:101E300091E707E02248006800F00C006168B0EB11
:101E4000810FEDD11D48006800F00F00A84209D9AC
:101E50001A490D700846006800F00F00A84201D032
:101E6000012078E7207800F00400042807D1144806
:101E7000006820F4E050E1680843114908602078C8
:101E800000F00800082808D10D48006820F46040E0
:101E9000216940EAC1000A49086000F05FF808497A
:101EA0000968C1F30311074A515CC840064908603C
:101EB0000020FFF779FE00204DE70000003C0240C3
:101EC0000838024080B50008240000200F2202607C
:101ED0000D4A126802F0030242600B4A126802F0D7
:101EE000F0028260084A126802F4E052C260064AB8
:101EF000126802F46042D2080261044A126802F0D9
:101F00000F020A607047000008380240003C02409F
:101F100001480068704700002400002000B5FFF76A
:101F2000F7FF04490968C1F38221034A515CC840A4
:101F300000BD00000838024090B5000800B5FFF76A
:101F4000E7FF04490968C1F34231034A515CC840C4
:101F500000BD00000838024090B500082DE9F047A8
:101F6000002400250026A1462548006800F00C004A
:101F700020B1042805D008283AD105E0DFF8849084
:101F800039E0DFF8809036E01D48001F006800F05F
:101F90003F041B48001F006800F4800078B1194816
:101FA0001749091F0968C1F38811A0FB0170014698
:101FB000224600233846FEF763F905460EE0114835
:101FC0000F49091F0968C1F38811A0FB0170014680
:101FD000224600233846FEF753F905460848001FFD
:101FE0000068C0F30140401C4600B5FBF6F902E072
:101FF000DFF8109000BF00BF4846BDE8F087000042
:10200000083802400024F400F8B504460CB9012059
:10201000F8BD207800F00100002874D0F94800686D
:1020200000F00C0004280DD0F648006800F00C0009
:10203000082813D1F348001F006800F48000B0F5B1
:10204000800F0BD1EF4808380068C0F340400028EB
:1020500059D06068002856D10120D9E700BF6068D8
:10206000B0F5803F08D1E7480838006840F4803078
:10207000E449083908601EE06068B0F5A02F0DD172
:10208000E0480838006840F48020DE4908390860DC
:102090000846006840F4803008600CE0D9480838F1
:1020A000006820F48030D749083908600846006885
:1020B00020F48020086000BF606890B1FFF7A0FAAC
:1020C000054606E0FFF79CFA401B642801D903206F
:1020D0009EE7CC4808380068C0F340400028F1D0A3
:1020E00011E0FFF78DFA054606E0FFF789FA401B7D
:1020F000642801D903208BE7C24808380068C0F380
:1021000040400028F1D1207800F0020002285FD181
:10211000BC48006800F00C0058B1BA48006800F0F4
:102120000C0008281CD1B748001F006800F480008C
:10213000B0B9B44808380068C0F3400020B1E06886
:10214000012801D0012063E7AE480838006820F07C
:10215000F800216940EAC100AA490839086037E05F
:10216000E06800B30120A8490860FFF749FA054676
:1021700006E0FFF745FA401B022801D9032047E794
:10218000A04808380068C0F340000028F1D09D48FE
:102190000838006820F0F800216940EAC100994938
:1021A0000839086014E0002097490860FFF728FA12
:1021B000054606E0FFF724FA401B022801D9032058
:1021C00026E7904808380068C0F340000028F1D1A5
:1021D000207800F0080008282CD16069A8B10120FF
:1021E0008A490860FFF70CFA054606E0FFF708FA8F
:1021F000401B022801D903200AE782486C3000689E
:10220000C0F340000028F1D014E000207F490860AE
:10221000FFF7F6F9054606E0FFF7F2F9401B022842
:1022200001D90320F4E677486C300068C0F3400021
:102230000028F1D1207800F00400042870D1002695
:1022400070483830006800F0805090B900BF00201E
:1022500000906C483830006840F08050694938314F
:1022600008600846006800F08050009000BF00BF82
:1022700001266748006800F48070B0B964480068BF
:1022800040F4807062490860FFF7BAF9054606E03D
:10229000FFF7B6F9401B022801D90320B8E65C48D5
:1022A000006800F480700028F2D000BFA068012808
:1022B00008D154486830006840F001005149683145
:1022C00008601DE0A06805280DD14E486830006800
:1022D00040F004004B49683108600846006840F04F
:1022E000010008600CE047486830006820F00100F9
:1022F0004449683108600846006820F0040008601E
:1023000000BFA068A8B1FFF77BF9054609E0FFF719
:1023100077F9401B41F28831884202D9032077E6E1
:1023200026E0384868300068C0F340000028EED04E
:1023300013E0FFF765F9054608E0FFF761F9401B78
:1023400041F28831884201D9032061E62D48683086
:102350000068C0F340000028EFD1012E07D12948C2
:102360003830006820F0805026493831086000BFBE
:10237000A069B8B32348006800F00C0008285ED0BC
:10238000A069022846D100201F490866FFF738F9E6
:10239000054606E0FFF734F9401B022801D9032067
:1023A00036E6184808380068C0F340600028F1D1CC
:1023B000D4E907010843616A40EA81110122A06A59
:1023C000C2EB500041EA00412C20005D41EA006070
:1023D0000C49091F086001200B490866FFF710F936
:1023E000054607E02DE0FFF70BF9401B022801D955
:1023F00003200DE6034808380068C0F34060002859
:10240000F1D01EE00838024000004742800E4742EB
:102410000070004000200C490866FFF7F1F80546FF
:1024200006E0FFF7EDF8401B022801D90320EFE595
:1024300006480068C0F340600028F2D101E00120A6
:10244000E6E50020E4E500000000474200380240D5
:1024500010B504460CB9012010BD606A00B900BF78
:102460000021A16294F8510028B9002084F850009E
:10247000204600F033F8022084F8510020680068FC
:1024800020F0400021680860D4E901010843E168B8
:1024900008432169084361690843218B01F40071F5
:1024A0000843E1690843216A0843A16A0843216897
:1024B00008600421A06901EA1040616A08432168AC
:1024C00048602068C06920F400602168C86100206D
:1024D0006065012084F851000020BDE710B586B08A
:1024E0000446142101A8FDF723FF1B4920688842F8
:1024F0002FD100BF002000901848006840F48050A1
:10250000164908600846006800F48050009000BF3B
:1025100000BF00BF0020009010481438006840F051
:1025200001000E49143908600846006800F00100F7
:10253000009000BF00BFF020019002200290002018
:102540000390032004900520059001A90448FEF79C
:1025500049FF06B010BD0000003001404438024081
:10256000000002407047704710B5024600BF92F865
:102570003C00012801D1022010BD012082F83C005E
:1025800000BF022082F83D0010684368106884682C
:1025900023F070030868034324F080044868044370
:1025A0001068436010688460012082F83D0000BF1D
:1025B000002082F83C0000BF00BFDDE710B50446F4
:1025C0000CB9012010BD94F83D0028B9002084F812
:1025D0003C00204600F00CF8022084F83D00211D4C
:1025E000206802F033F8012084F83D000020E9E77C
:1025F00008B50A4A016891420FD100BF002100913D
:102600000749096841F01001054A1160114609683F
:1026100001F01001009100BF00BF08BD0010004094
:102620004038024001460868C06840F001000B686D
:10263000D8600868806800F00702062A05D008689C
:10264000006840F001000B681860002070472DE919
:10265000F04104460D4614B90120BDE8F08194F81C
:102660003D0028B9002084F83C00204600F046F8E0
:10267000022084F83D002068806844F20701884306
:1026800021688860211D206801F0E0FF2068D0F8F3
:102690000880206886692068076A286840EA080878
:1026A00040F203308643A969A86840EA0120064346
:1026B00040F60C4086434FF2F0008643E969E86833
:1026C00040EA0120064328690001296A40EA0130F6
:1026D000064327F0220727F088076969686840EAFF
:1026E000011007432068C0F80880206886612068D0
:1026F0000762012084F83D000020AEE710B586B0E7
:102700000446142101A8FDF713FE3A4920688842C7
:1027100039D100BF002000903748006840F0010028
:10272000354908600846006800F00100009000BFCD
:1027300000BF00BF002000902F481438006840F010
:1027400001002D49143908600846006800F00100B6
:10275000009000BF00BF4FF4407001900220029033
:1027600001200390002004900120059001A9234836
:10277000FEF738FE002211461920FFF795FA1920BE
:10278000FFF782FA34E01E492068884230D100BF4A
:10279000002000901848001F006840F00200164911
:1027A000091F08600846006800F00200009000BFA2
:1027B00000BF00BF002000900F481438006840F0B0
:1027C00004000D49143908600846006800F0040050
:1027D000009000BF00BFC0200190022002900020A6
:1027E000039004900220059001A90648FEF7FAFD27
:1027F00006B010BD00000140443802400000024015
:10280000000400400008024030B504460D4615B1F2
:10281000042D0CD105E001220021206801F082FF87
:1028200010E001220421206801F07CFF0AE001226F
:102830000021206801F076FF01220421206801F0C8
:1028400071FF00BF00BF2068006840F001002168F0
:102850000860002030BD704710B50446206800694C
:10286000C0F34000D8B12068C068C0F34000B0B1E8
:102870006FF00200216808610120207720688069DC
:1028800000F0030018B12046FFF7E5FF05E0204601
:1028900000F006F9204600F0D1F9002020772068EA
:1028A0000069C0F38000D8B12068C068C0F3800020
:1028B000B0B16FF004002168086102202077206821
:1028C000806900F4407018B12046FFF7C4FF05E0AE
:1028D000204600F0E5F8204600F0B0F9002020770F
:1028E00020680069C0F3C000D8B12068C068C0F398
:1028F000C000B0B16FF008002168086104202077A3
:102900002068C06900F0030018B12046FFF7A3FF5C
:1029100005E0204600F0C4F8204600F08FF90020C2
:10292000207720680069C0F30010D8B12068C06823
:10293000C0F30010B0B16FF01000216808610820EA
:1029400020772068C06900F4407018B12046FFF776
:1029500082FF05E0204600F0A3F8204600F06EF963
:10296000002020772068006900F0010058B120683D
:10297000C06800F0010030B16FF00100216808610B
:10298000204600F089F920680069C0F3C01058B1F2
:102990002068C068C0F3C01030B16FF080002168BB
:1029A00008612046FFF7DEFD20680069C0F3801053
:1029B00058B12068C068C0F3801030B16FF040009B
:1029C00021680861204600F073F920680069C0F3AF
:1029D000401058B12068C068C0F3401030B16FF0AB
:1029E0002000216808612046FFF7BDFD10BD0000F2
:1029F00010B586B00446142101A8FDF799FC2068A3
:102A0000B0F1804F1FD100BF002000902048006827
:102A100040F002001E4908600846006800F002000D
:102A2000009000BF00BF4FF4406001900220029070
:102A300000200390032004900120059001A915486F
:102A4000FEF7D0FC21E01449206888421DD100BF68
:102A5000002000900E48006840F001000C4908601A
:102A60000846006800F00100009000BF00BF082089
:102A70000190022002900120039000200490022087
:102A8000059001A90548FEF7ADFC06B010BD000099
:102A90003038024000040240000C004000000240B8
:102AA000704770B504460D46164600BF94F83C00CA
:102AB000012801D1022070BD012084F83C0000BF34
:102AC000022084F83D0036B1042E1BD0082E31D0F0
:102AD0000C2E5ED145E02946206801F035FE2068C5
:102AE000806940F00800216888612068806920F0D2
:102AF0000400216888612068806929690843216889
:102B0000886147E02946206801F056FE2068806908
:102B100040F40060216888612068806920F480604A
:102B20002168886120688069296940EA012021685C
:102B300088612FE02946206801F07CFE2068C0698A
:102B400040F008002168C8612068C06920F00400D6
:102B50002168C8612068C069296908432168C86183
:102B600018E02946206801F0A1FE2068C06940F401
:102B700000602168C8612068C06920F48060216815
:102B8000C8612068C069296940EA01202168C861DC
:102B900000E000BF00BF012084F83D0000BF00201E
:102BA00084F83C0000BF00BF85E710B504460CB9AF
:102BB000012010BD94F83D0028B9002084F83C00A5
:102BC000204600F00DF8022084F83D00211D206809
:102BD00001F03CFD012084F83D000020E9E7000001
:102BE00008B50168B1F1804F0FD100BF00210091FD
:102BF0001049096841F001010E4A11601146096847
:102C000001F00101009100BF13E00B4A01689142FD
:102C10000FD100BF002100910649096841F0080169
:102C2000044A11601146096801F00801009100BFD3
:102C300000BF08BD40380240000C00407047000053
:102C400070B504460E4601223146206801F06AFD47
:102C50000F492068884203D00E492068884201D17C
:102C6000012000E0002028B12068406C40F40040C2
:102C7000216848642068806800F00705062D05D0AB
:102C80002068006840F0010021680860002070BDE5
:102C9000000001400004014010B5044603492068CB
:102CA000884201D1FEF756FF10BD000000440140EC
:102CB000704770472DE9F047044620680568206892
:102CC000C668206847694FF00008C14605F00F0844
:102CD000B8F1000F0AD105F0200038B106F020004D
:102CE00020B1204601F036FEBDE8F087B8F1000FB4
:102CF0006ED007F0010018B906F49070002867D074
:102D000005F0010030B106F4807018B1E06B40F0BE
:102D10000100E06305F0040030B107F0010018B1D4
:102D2000E06B40F00200E06305F0020030B107F014
:102D3000010018B1E06B40F00400E06305F008000A
:102D400030B107F0010018B1E06B40F00800E0631B
:102D5000E06B70B305F0200028B106F0200010B140
:102D6000204601F0F7FD20684069C0F38019E06B50
:102D700000F0080010B9B9F1000F23D0204601F08F
:102D8000C9FD2068406900F04000402816D1206845
:102D9000406920F0400021684861606B50B11748DD
:102DA000616B0865606BFEF7F5FA10B1606B016D41
:102DB00088470CE02046FFF77CFF08E02046FFF73D
:102DC00078FF04E02046FFF774FF0020E0638BE704
:102DD00005F0800030B106F0800018B1204601F007
:102DE000C1FF81E705F0400030B106F0400018B1A6
:102DF000204601F09FFD77E700BF75E70149000815
:102E000010B504460CB9012010BDA06900B100E066
:102E100000BF94F8390028B9002084F83800204613
:102E200000F028F8242084F839002068C06820F4D5
:102E300000502168C860204601F0E0FD206800696C
:102E400020F49040216808612068406920F02A0041
:102E5000216848612068C06840F400502168C8605B
:102E60000020E063202084F8390084F83A00002034
:102E7000CAE7000010B586B00446142101A8FDF78A
:102E800057FA3F492068884238D100BF002000909F
:102E90003C48006840F010003A4908600846006865
:102EA00000F01000009000BF00BF00BF00200090A5
:102EB00034481438006840F0020032491439086080
:102EC0000846006800F00200009000BF00BFC0206C
:102ED000019002200290012003900320049007201B
:102EE000059001A92848FEF77DFA0022052125203A
:102EF000FEF7DAFE2520FEF7C7FE3EE023492068F4
:102F000088423AD100BF002000901E48001F006890
:102F100040F480201B49091F08600846006800F43F
:102F20008020009000BF00BF00BF00200090154827
:102F30001438006840F0040012491439086008464B
:102F4000006800F00400009000BF00BF4FF4406034
:102F5000019002200290012003900320049007209A
:102F6000059001A90A48FEF73DFA00220521272015
:102F7000FEF79AFE2720FEF787FE06B010BD000080
:102F80000010014044380240000402400048004064
:102F90000008024010B5034693F83A0020282FD1CC
:102FA00001B10AB9012010BD00BF93F83800012813
:102FB00001D10220F7E7012083F8380000BF9962B1
:102FC0009A85DA850020D863222083F83A0000BF72
:102FD000002083F8380000BF1868C06840F4807093
:102FE0001C68E0601868406940F001001C6860617E
:102FF0001868C06840F020001C68E0600020D2E73C
:103000000220D0E710B504460248844201D101F005
:10301000DFFF10BD300800202DE9F84304460D46BF
:1030200016461F464FF0000994F8390020285CD15D
:1030300005B116B90120BDE8F88300BF94F8380047
:10304000012801D10220F6E7012084F8380000BFF2
:103050000020E063212084F83900FEF7D1FA814690
:10306000A684E6842BE0E08C401EE084A068B0F5E6
:10307000805F16D14B46002280212046009701F048
:10308000A5FE08B10320D6E7A846B8F80000C0F3B3
:10309000080021684860206908B9AD1C0FE06D1C6C
:1030A0000DE04B46002280212046009701F08EFE65
:1030B00008B10320BFE715F8010B21684860E08CD8
:1030C0000028D0D14B46002240212046009701F035
:1030D0007DFE08B10320AEE7202084F8390000BF50
:1030E000002084F8380000BFA5E70220A3E770475E
:1030F00000BFFEE700B5024692ED240A82ED060A03
:1031000002F1100001F0F4FEF0EE401A92ED250AF3
:10311000F0EE400AB0EE610A00F084FD82ED280A6C
:1031200092ED040AB0EEC00AF0EE000AB4EEE00A36
:10313000F1EE10FA05D89C208058401C9C21885044
:1031400002E000219C2081509C208058B0F5FA7F3D
:1031500029DB9FED150A82ED100A92ED100ADFEDD2
:10316000130A30EE200A82ED110A9FED0F0A82ED5C
:10317000280A9FED0D0A82ED050A9FED0B0A82EDEC
:10318000060A9FED090A82ED0E0A9FED070A82EDFD
:10319000030A9FED050A82ED280A9FED030A82EDDE
:1031A0000D0A0520106000BD000000000000004670
:1031B000014608684069C0F38020B0B16FF48060B8
:1031C0000A68506100200863202081F83D0000203B
:1031D00081F83E00086C40F00400086400BF002045
:1031E00081F83C0000BF012070470020FCE7000090
:1031F0002DE9F8430446884615469946DDE90867F7
:103200002068006840F4807021680860334600221E
:103210004FF001112046009700F0DCF810B10120BA
:10322000BDE8F88308F0FE00216808613B4632469D
:103230002149204600F011F908B10120F0E700BF54
:10324000002000902068406900902068806900900C
:1032500000BF00BF3A463146204600F060F950B149
:10326000206C042805D12068006840F400702168B3
:1032700008600120D4E7B9F1010F03D1E8B2216859
:10328000086117E0C5F30720216808613A46314616
:10329000204600F044F950B1206C042805D1206884
:1032A000006840F40070216808600120B8E7E8B2C7
:1032B000216808610020B3E70200010070B596B0F4
:1032C000182221A110A8FDF70CF810A8FDF73BF873
:1032D00084B24FF0FF33224610A92148FFF79CFE2D
:1032E000002425E04FF6FF7000EA44010A23012282
:1032F0001C48FEF767FA05468DB923461AA24021FD
:10330000684601F0BFFF6846FDF71DF886B24FF032
:10331000FF33324669461248FFF77EFE06E04FF063
:10332000FF33012212A10E48FFF776FE601C84B223
:10333000802CD7DB4FF0FF3302220EA10848FFF7A5
:103340006BFE16B070BD00005363616E6E696E67F0
:1033500020493243206275732E2E2E0D0A00000084
:103360007008002004060020307825303258000014
:10337000200000000D0A000070B504460D461646F8
:1033800020E02046FFF714FF08B1012070BD681C43
:10339000C0B1FEF735F9801BA84200D895B90020CE
:1033A0002063202084F83D00002084F83E00206C3B
:1033B00040F02000206400BF002084F83C0000BFE3
:1033C0000120E3E720684069C0F380000028D8D0DE
:1033D0000020DBE72DE9F04104460D4617461E4666
:1033E000DDF818801CE0701CD0B1FEF709F9A0EBE5
:1033F0000800B04200D89EB900202063202084F845
:103400003D00002084F83E00206C40F02000206445
:1034100000BF002084F83C0000BF0120BDE8F0811F
:10342000C5F3074001280AD120684069A9B20840C5
:10343000A9B2884201D101200BE0002009E02068F8
:103440008069A9B20840A9B2884201D1012000E0F8
:103450000020B842C7D00020E0E72DE9F041044643
:103460000D4616461F463DE020684069C0F38020A7
:10347000E8B12068006840F40070216808606FF4CB
:1034800080602168486100202063202084F83D008E
:10349000002084F83E00206C40F00400206400BF4F
:1034A000002084F83C0000BF0120BDE8F081701CC2
:1034B000C0B1FEF7A5F8C01BB04200D896B90020F5
:1034C0002063202084F83D00002084F83E00206C1A
:1034D00040F02000206400BF002084F83C0000BFC2
:1034E0000120E2E7C5F3074001280AD120684069BE
:1034F000A9B20840A9B2884201D101200BE0002006
:1035000009E020688069A9B20840A9B2884201D1C7
:10351000012000E000200028A6D00020C5E770B5FB
:1035200004460D46164620E02046FFF741FE08B14E
:10353000012070BD681CC0B1FEF762F8801BA84274
:1035400000D895B900202063202084F83D00002099
:1035500084F83E00206C40F02000206400BF002072
:1035600084F83C0000BF0120E3E720684069C0F315
:10357000C0100028D8D00020DBE700BF012004F0F5
:10358000B6FCFBE710B50446082C6ED2DFE804F069
:1035900004152637495B6E8100224FF4805146485E
:1035A000FEF728F8012251034348FEF723F80122D1
:1035B00091034148FEF71EF87CE0012211033E48CA
:1035C000FEF718F800224FF400513B48FEF712F8BE
:1035D000012291033848FEF70DF86BE00122110338
:1035E0003548FEF707F8012251033348FEF702F889
:1035F00000224FF480413048FDF7FCFF5AE00022E2
:103600004FF480512C48FDF7F5FF00224FF4005194
:103610002948FDF7EFFF012291032748FDF7EAFF54
:1036200048E000224FF480512348FDF7E3FF0122D8
:1036300051032148FDF7DEFF00224FF480411E4870
:10364000FDF7D8FF36E0012211031B48FDF7D2FF3A
:1036500000224FF400511848FDF7CCFF00224FF430
:1036600080411548FDF7C6FF24E022E000224FF418
:1036700080511148FDF7BEFF00224FF400510E4863
:10368000FDF7B8FF00224FF480410B48FDF7B2FF71
:1036900010E0012211030848FDF7ACFF012251039D
:1036A0000548FDF7A7FF012291030348FDF7A2FF9C
:1036B00000E000BF00BF10BD000402401FB50020A5
:1036C00000900190029003901648174908604FF44B
:1036D0008030486000211448816001210161017639
:1036E000002180F82010C162104981620021C16070
:1036F0000121C161002180F8301001214161FDF7F5
:10370000BBFD08B1FDF7F0FC002000900120019006
:103710000020029069460448FDF7E8FC08B1FDF777
:10372000E3FC1FBD00200140680300200100000FE2
:1037300000B5ABB01C22244924A8FCF7D2FD00211F
:1037400024A804F0E5FB214908601C221E491C3115
:103750001DA8FCF7C6FD00211DA804F0D9FB1C49DB
:1037600008601C221849383116A8FCF7BAFD002160
:1037700016A804F0CDFB174908601C2212495431E9
:103780000FA8FCF7AEFD00210FA804F0C1FB124901
:1037900008601C220C49703108A8FCF7A2FD00212A
:1037A00008A804F0B5FB0D4908601C2206498C31BD
:1037B00001A8FCF796FD002101A804F0A9FB084927
:1037C00008602BB000BD0000D8B400080000002045
:1037D00004000020080000200C0000201000002041
:1037E0001400002000B587B0142102A8FCF7A0FD4A
:1037F00000BF002001903948006840F08000374940
:1038000008600846006800F08000019000BF00BF1B
:1038100000BF002001900846006840F004000860E6
:103820000846006800F00400019000BF00BF00BF20
:10383000002001900846006840F00100086008463A
:10384000006800F00100019000BF00BF00BF002031
:1038500001900846006840F00200086008460068D1
:1038600000F00200019000BF00BF002220211C4890
:10387000FDF7C0FE002247F207011A48FDF7BAFE25
:10388000202002900120039000200490059002A9BE
:103890001348FDF7A7FD07200290012003900020A8
:1038A0000490059002A90F48FDF79CFD4FF4E040FD
:1038B00002900120039004900020059002A909487D
:1038C000FDF790FD18200290074803900120049016
:1038D00002A90448FDF786FD07B000BD303802405C
:1038E00000080240000402400000111010B50B480F
:1038F0000B4908600B484860002109488160C1609D
:103900004FF480410161002141618161C161016227
:10391000FDF77CFE08B1FDF7E7FB10BD0054004049
:1039200004060020A086010010B50E480E4908606C
:103930004FF48270486000210B488160C1600161D2
:1039400041614FF4802181610021C16101624162C6
:1039500081620A21C162FEF77BFD08B1FDF7C4FB5D
:1039600010BD0000003001405806002000B58BB0AB
:10397000242102A8FCF7DCFC0020009001901848EC
:1039800018490860002048600021164881604FF601
:10399000FF71C160002101614161816103200290DA
:1039A00000200390012004900020059006900790CD
:1039B00001200890002009900A9002A90948FEF70A
:1039C00046FE08B1FDF790FB00200090019069468B
:1039D0000448FEF7C9FD08B1FDF786FB0BB000BD3A
:1039E00000000140F006002000B589B000200790DB
:1039F00008901C216846FCF79BFC4FF080401B4957
:103A00000860A720486000211848816040F2E73133
:103A1000C160002101618161FFF7C7F808B1FDF7BE
:103A200063FB00200790089007A91048FEF79CFD53
:103A300008B1FDF759FB6020009000200190029032
:103A40000490082269460948FFF72BF808B1FDF7F2
:103A50004BFB0C2269460548FFF723F808B1FDF738
:103A600043FB0248FEF7C4FF09B000BD3007002049
:103A700000B58BB0242102A8FCF75AFC002000906E
:103A80000190184818490860002048600021164835
:103A900081604FF6FF71C1600021016181610320E7
:103AA00002900020039001200490002005900690D1
:103AB000079001200890002009900A9002A90A4866
:103AC000FEF7C5FD08B1FDF70FFB00200090019047
:103AD00069460548FEF748FD08B1FDF705FB0BB048
:103AE00000BD0000000400407007002000B589B050
:103AF0000020079008901C216846FCF719FC184824
:103B000018490860A720486000211648816040F2EB
:103B1000F311C160002101618161FFF746F808B12E
:103B2000FDF7E2FA00200790089007A90D48FEF77C
:103B30001BFD08B1FDF7D8FA60200090FA20019033
:103B40000020029004900C2269460648FEF7A9FF67
:103B500008B1FDF7C9FA0348FEF74AFF09B000BDF6
:103B6000000C0040B00700201CB500200090019020
:103B70000E480F490860A720486000210C4881606A
:103B800041F28731C16000218161FEF717FD08B164
:103B9000FDF7AAFA00200090019069460448FEF75C
:103BA000E3FC08B1FDF7A0FA1CBD000000100040C6
:103BB000F007002010B50B480B4908604FF4E130C6
:103BC0004860002108488160C16001610C214161A9
:103BD00000218161C161FFF713F908B1FDF784FA93
:103BE00010BD0000001001403008002010B50B4847
:103BF0000B4908604FF4E1304860002108488160BB
:103C0000C16001610C21416100218161C161FFF747
:103C1000F7F808B1FDF768FA10BD00000048004051
:103C200070080020B4EEE00AF1EE10FA01DDB0EE0B
:103C3000600AB1EE601AB4EEC10AF1EE10FA03D2D6
:103C4000B1EE601AB0EE410A704700BFFEE7000017
:103C500010B50024BAE004EB440000EBC40079493D
:103C600001EB8000007E022800D1B2E004EB4402A8
:103C700002EBC402734B03EB820104EB840202EB00
:103C8000C402714B03EB0210FDF778F804EB8400DB
:103C900000EBC4006C4901EB0010007A01280AD047
:103CA0009FED6A0A04EB840000EBC40001EB0010F6
:103CB00080ED030A89E004EB840000EBC400624954
:103CC00001EB00100068022840D0052802D0062829
:103CD00078D15BE004EB840101EBC4015A4A02EBAA
:103CE000011101F1400000F003FB04EB840000EB44
:103CF000C400554901EB001090ED190A04EB840053
:103D000000EBC40001EB001080ED050A04EB840118
:103D100001EBC4014C4A02EB011101F1100001F06A
:103D20001FF904EB840101EBC401474A02EB0111C6
:103D300001F1100001F0DCF804EB840000EBC4009A
:103D4000414901EB001080ED030A3CE004EB8401E3
:103D500001EBC4013C4A02EB011101F1100001F03A
:103D6000FFF804EB840101EBC401374A02EB0111B7
:103D700001F1100001F0BCF804EB840000EBC4007A
:103D8000314901EB001080ED030A1CE004EB8401D3
:103D900001EBC4012C4A02EB0110FFF7ABF904EB75
:103DA000840000EBC400284901EB001090ED280AC4
:103DB00004EB840000EBC40001EB001080ED030A6B
:103DC00001E0FFE700BF00BF00BF641C022CFFF64C
:103DD00042AF00BF002023E000EB400101EBC00137
:103DE000184A02EB8101097E91B900EB800101EBD9
:103DF000C001154A02EB011191ED030AF7EE000A2A
:103E000020EE200A124901EB800181ED000A06E054
:103E10009FED0E0A0E4901EB800181ED000A401C66
:103E20000228D9DB0A48D0ED000AB0EE600A00F0A3
:103E3000CBFA0748D0ED010AB0EE600A00F00CFBA7
:103E400010BD0000B8490020104A0020000000000A
:103E5000B0000020704700002DED0C8B8AB000BF31
:103E6000E948007820B101286ED002287DD1C4E154
:103E70000020E649087054E0E448007800EB400078
:103E8000E34901EB4013E1480078C0EBC00101EBCE
:103E90000010E04901EB8002DC480178062004F0C4
:103EA00067F8DA48007800EB4000D94A02EB40108E
:103EB00090ED120A10EE101A0846FCF70CFC41ECCB
:103EC000180BD248007800EB4000D14A02EB4010BA
:103ED00090ED0E0A10EE101A0846FCF7FCFB41ECC0
:103EE000190BCA48007800EB4000C94A02EB4010A9
:103EF00090ED0A0A10EE101A0846FCF7ECFB41ECB4
:103F00001A0B8DED028B8DED009B53EC1A2BBF48E5
:103F10000178C14801F0A6F9BC480078401CBB49B3
:103F20000870BA4800780628A6DB0020B749087058
:103F30000120BA4908701021B948FDF753FB10B9A8
:103F40000120B14908705AE1B048007800EB400008
:103F5000AF4901EB401090F85F00012806D1AB4853
:103F60000078401CA949087004E047E1A7480078A0
:103F7000A6490870A5480078052803DD0520A34957
:103F8000087003E0A1480078A04908709F4A1278A1
:103F900002EB42029E4B03EB42119C4A1278C2EBA9
:103FA000C20303EB02129B4B03EB820004F004FA02
:103FB0009C4890ED010A9C4880ED010A994890EDDB
:103FC000000A994880ED000A964890ED020A96484A
:103FD00080ED020A954896498C4ACDE90010127886
:103FE00002EB42028A4B03EB4211884A1278C2EB81
:103FF000C20303EB0212874B03EB82008D4B8A4A0C
:1040000006F076FA894890ED001A8948D0ED000A4A
:10401000884890ED000A00F03DF9874890ED020ACB
:1040200010EE101A0846FCF756FB41EC180B8248BC
:1040300090ED010A10EE101A0846FCF74CFB41EC1B
:10404000190B7D4890ED000A10EE101A0846FCF797
:1040500042FB41EC1A0B8DED028B8DED009B53EC76
:104060001A2B76A001F0FEF86848007800EB4000BB
:10407000674A02EB401090ED120A10EE101A084643
:10408000FCF729FB41EC180B6048007800EB40007E
:104090005F4A02EB401090ED0E0A10EE101A08462F
:1040A000FCF719FB41EC190B5848007800EB400075
:1040B000574A02EB401090ED0A0A10EE101A08461B
:1040C000FCF709FB41EC1A0B5048007800EB40006C
:1040D0004F4A02EB401090ED020A10EE101A08460B
:1040E000FCF7F9FA41EC1B0B4848007800EB400064
:1040F000474A02EB401090ED010A10EE101A0846F4
:10410000FCF7E9FA41EC1C0B4048007800EB40005A
:104110003F4A02EB401090ED000A10EE101A0846DC
:10412000FCF7D9FA41EC1D0B8DED088B8DED069B4C
:104130008DED04AB8DED02BB8DED00CB53EC1D2B53
:10414000474801F08FF831480078C0EBC00202EB1D
:104150000010304A02EB800090ED130A10EE101AA6
:104160000846FCF7B8FA41EC180B8DED028B274896
:10417000007800EB4000264901EB401090F85E000B
:104180002249097801EB4101214A02EB411191F8E2
:104190005D10CDE900101D48007800EB400011468D
:1041A00001EB401090F85C301848007800EB4000BC
:1041B00001EB401090F85F2014480178294801F085
:1041C00051F81A480068FCF786FA41EC180B1848B9
:1041D0000068FCF780FA41EC190B16480068FCF700
:1041E0007AFA41EC1A0B8DED028B8DED009B53ECAE
:1041F0001A2B1DA001F036F801E000E000BF00BF5F
:10420000142003F074FE2BE6D8000020C800002024
:10421000D44B0020DC00002004E70008D900002077
:1042200000040240A0490020B04B0020D400002030
:10423000D0000020CC000020C84B0020474C4F424B
:10424000414C213A20782025662C20792025662CA7
:10425000207468657461202566200D0A0000000046
:1042600058E70008B4E70008545241434B213A2074
:1042700076785F7365742025662C2076795F736588
:10428000742025662C20777A5F7365742025660D6F
:104290000A000000B0EE402ADFED122A21EE223A99
:1042A000F0EE003AC3EE232A70EEE22AB0EE620A84
:1042B000DFED0C2A21EE223AF0EE003AC3EE232A7B
:1042C00072EEA02AF0EE621ADFED072A60EE222AD3
:1042D0000648C0ED052ADFED042A61EEA22AC0EDF2
:1042E000392A70470E2DB23D4B6E0C44104A002007
:1042F00010B52DED048B04469FED310AB0EE408AD7
:104300009FED2F0AF0EE408AB7EE000AB0EE409A19
:1043100094ED010AD4ED000A30EE600A84ED020A41
:1043200094ED020AD4ED070A20EE200AD4ED020A29
:1043300094ED031A70EEC10A94ED081A01EE200AFA
:10434000B0EE408A94ED020A84ED030A94ED020A6D
:10435000B5EEC00AF1EE10FA03D2BFEE000AB0EEDD
:10436000409AD4ED050A9FED171A60EE810A60EEBF
:10437000890A94ED021A60EE810AB0EE600A02F03A
:104380001CFB20EE090AF0EE408AB0EEE80AF0EEDF
:10439000C80AB4EEE00AF1EE10FA01D2B0EE688A73
:1043A00094ED040AF0EE400AB0EE480AFFF73AFC3A
:1043B00084ED090A94ED090ABDEC048B10BD0000E0
:1043C000000000003333B33F10B52DED028BB0EE8B
:1043D000408AB5EEC08AF1EE10FA0CD1DFED1A8AF0
:1043E000002201211948FDF705F900222021184873
:1043F000FDF700F91DE0B5EEC08AF1EE10FA0CDD14
:10440000F0EE488A002201211048FDF7F3F801225E
:1044100020210F48FDF7EEF80BE0F1EE488A01226B
:1044200011460A48FDF7E6F8002220210848FDF76A
:10443000E1F8BCEEE80A10EE100A06490968C86304
:10444000BDEC028B10BD0000000000000004024023
:10445000000802403007002010B52DED028BB0EEB1
:10446000408AB5EEC08AF1EE10FA0CD1DFED1A8A5F
:10447000002202211948FDF7BDF800220421174847
:10448000FDF7B8F81DE0B5EEC08AF1EE10FA0CDDCC
:10449000F0EE488A012202211048FDF7ABF8002215
:1044A00004210E48FDF7A6F80BE0F1EE488A002241
:1044B00002210A48FDF79EF8012204210748FDF772
:1044C00099F8BCEEE80A10EE100A0549096808647C
:1044D000BDEC028B10BD0000000000000004024093
:1044E0003007002000BFFEE710B500BF502080F36A
:1044F0001188BFF34F8FBFF36F8F00BF06F0C6FE6A
:1045000018B14FF080500449086000BF002080F3CC
:10451000118800BF10BD000004ED00E000B593B0AD
:10452000302107A8FBF704FF142102A8FBF700FFC6
:1045300000BF002001902448006840F080502249CC
:1045400008600846006800F08050019000BF00BF7E
:1045500000BF002001901D48006840F480401B49C6
:1045600008600846006800F48040019000BF00BF6A
:10457000012007900004089002200D9041050E9143
:1045800008210F91A821109102211191042112916B
:1045900007A8FDF739FD08B1FCF7A6FD0F20029032
:1045A00002200390002004904FF4A05005904FF497
:1045B00080500690052102A8FDF7C8FB08B1FCF762
:1045C00093FD13B000BD0000403802400070004071
:1045D0001448006840F470001249086012480068EE
:1045E00040F001001049086000200F4908310860C0
:1045F0000D4800680D4908400B4908600C48091D2A
:104600000860081F006820F48020091F086000204F
:1046100005490C3108604FF000600249803908609C
:104620007047000088ED00E000380240FFFFF6FE12
:104630001030002410B50348FEF70EF90248FEF7CB
:104640000BF910BDF0060020B006002010B502687E
:10465000294B98420ED0B0F1804F0BD0274B984297
:1046600008D0274B984205D0264B984202D0264BC3
:10467000984203D122F070024B681A431E4B9842B5
:1046800020D0B0F1804F1DD01C4B98421AD01C4B4B
:10469000984217D01B4B984214D01B4B984211D014
:1046A0001A4B98420ED01A4B98420BD0194B984295
:1046B00008D0194B984205D0184B984202D0184B9D
:1046C000984203D122F44072CB681A4322F080034F
:1046D0004C6943EA040202608B68C3620B68836220
:1046E000054B984202D0084B984201D10B690363F5
:1046F0000123436110BD00000000014000040040A0
:1047000000080040000C004000040140004001404F
:10471000004401400048014000180040001C0040D7
:104720000020004030B501F01F05012404FA05F314
:10473000046A9C430462046A01F01F0502FA05F54D
:104740002C43046230BD000030B5056A25F0010538
:104750000562026A4368846924F0700424F003044B
:104760000D682C4322F002028D682A43104DA842A6
:1047700000D103E00F4DA84206D100BF22F008028D
:10478000CD682A4322F00402094DA84202D0094D07
:10479000A84207D123F4807323F400734D692B439F
:1047A0008D692B43436084614D684563026230BD6F
:1047B000000001400004014030B5056A25F01005F5
:1047C0000562026A4368846924F4E04424F4407476
:1047D0000D6844EA052422F020028D6842EA0512A1
:1047E000124DA84200D103E0114DA84207D100BFED
:1047F00022F08002CD6842EA051222F040020B4D01
:10480000A84202D00A4DA84209D123F4806323F4C0
:1048100000634D6943EA85038D6943EA850343607C
:1048200084614D688563026230BD00000000014074
:104830000004014030B5056A25F480750562026AFE
:104840004368C46924F0700424F003040D682C4309
:1048500022F400728D6842EA0522124DA84200D16E
:1048600003E0114DA84207D100BF22F40062CD68D9
:1048700042EA052222F480620A4DA84202D00A4D83
:10488000A84209D123F4805323F400534D6943EA2D
:1048900005138D6943EA05134360C4614D68C56320
:1048A000026230BD000001400004014030B5056ADD
:1048B00025F480550562036A4468C26922F4E04227
:1048C00022F440720D6842EA052223F400538D68F9
:1048D00043EA0533084DA84202D0084DA84204D14E
:1048E00024F480444D6944EA85144460C2614D68F3
:1048F0000564036230BD0000000001400004014077
:1049000070B50546AC6B0020E085E0842046FEF7DC
:10491000D0F970BD0168C96821F490710268D16056
:104920000168496921F0010102685161202180F884
:104930003A10704710B504462068C06820F0400067
:104940002168C860202084F839002046FEF7CFFB9C
:10495000002010BD70B5044694F83A0022284AD1D0
:10496000A068B0F5805F13D1A56A206940B92068BE
:104970004068C0F308002880A06A801CA06219E08B
:1049800020684068C0B22880A06A401CA06211E084
:10499000206938B920684068C1B2A26A501CA06280
:1049A000117007E02068406800F07F01A26A501C87
:1049B000A0621170E08D401E80B2E085C8B9206809
:1049C000C06820F020002168C8602068C06820F41A
:1049D00080702168C8602068406920F0010021686B
:1049E0004861202084F83A002046FEF70BFB0020A7
:1049F00070BD0020FCE70220FAE700002DE9F0413D
:104A000004462068006920F44050E16808432168AA
:104A100008612169A068084361690843E16940EAC7
:104A200001052068C06849F20C6188432843216869
:104A3000C8602068406920F44070A169084321687B
:104A40004861E069B0F5004F7ED1C44920688842D2
:104A500003D0C349206888425DD1FDF76FFA00EBAF
:104A6000C00101EB001061684900B0FBF1F0642166
:104A7000B0FBF1F00601FDF761FA00EBC00101EBBC
:104A8000001061684900B0FBF1F7FDF757FA00EB41
:104A9000C00101EB001061684900B0FBF1F0642136
:104AA000B0FBF1F000EBC00101EB0010A7EB8000C0
:104AB000322101EBC0006421B0FBF1F000F0F800FE
:104AC00006EB4006FDF73AFA00EBC00101EB0010DF
:104AD00061684900B0FBF1F7FDF730FA00EBC00167
:104AE00001EB001061684900B0FBF1F06421B0FBFC
:104AF000F1F000EBC00101EB0010A7EB80003221C8
:104B000001EBC0006421B0FBF1F000F0070030447D
:104B10002168886020E1FDF701FA00EBC00101EB9C
:104B2000001061684900B0FBF1F06421B0FBF1F0C6
:104B30000601FDF7F3F900EBC00101EB001061681D
:104B40004900B0FBF1F700E045E0FDF7E7F900EBC5
:104B5000C00101EB001061684900B0FBF1F0642175
:104B6000B0FBF1F000EBC00101EB0010A7EB8000FF
:104B7000322101EBC0006421B0FBF1F000F0F8003D
:104B800006EB4006FDF7CAF900EBC00101EB00108F
:104B900061684900B0FBF1F7FDF7C0F900EBC00117
:104BA00001EB001061684900B0FBF1F06421B0FB3B
:104BB000F1F000EBC00101EB0010A7EB8000322107
:104BC00001EBC0006421B0FBF1F000F007003044BD
:104BD00021688860C0E061492068884203D060494C
:104BE000206888425CD1FDF7A9F900EBC00101EB18
:104BF000001061688900B0FBF1F6FDF79FF900EB4A
:104C0000C00101EB001061688900B0FBF1F0642184
:104C1000B0FBF1F000EBC00101EB0010A6EB80004F
:104C2000322101EB00106421B0FBF1F000F0F0063E
:104C3000FDF784F900EBC00101EB00106168890009
:104C4000B0FBF1F06421B0FBF1F006EB0016FDF7CC
:104C500075F900EBC00101EB001061688900B0FB41
:104C6000F1F7FDF76BF900EBC00101EB0010616893
:104C70008900B0FBF1F06421B0FBF1F000EBC00162
:104C800001EB0010A7EB8000322101EB0010642142
:104C9000B0FBF1F000F00F003044216888605BE069
:104CA000FDF73CF900EBC00101EB001061688900E1
:104CB000B0FBF1F6FDF732F900EBC00101EB00109B
:104CC00061688900B0FBF1F06421B0FBF1F000EB0A
:104CD000C00101EB0010A6EB8000322101EB0010B7
:104CE0006421B0FBF1F000F0F006FDF717F900EBDE
:104CF000C00101EB001061688900B0FBF1F0642194
:104D0000B0FBF1F006EB0016FDF708F900EBC0016F
:104D100001EB001061688900B0FBF1F7FDF7FEF8C8
:104D200000EBC00101EB001061688900B0FBF1F0FD
:104D30006421B0FBF1F000EBC00101EB0010A7EB28
:104D40008000322101EB00106421B0FBF1F000F093
:104D50000F00304421688860BDE8F08100100140F8
:104D600000140140014691F8390021282CD18868AF
:104D7000B0F5805F0FD10A6A1088C0F308000B6895
:104D80005860086918B9086A801C086209E0086A56
:104D9000401C086205E00B6A581C086218780B6812
:104DA0005860C88C401E80B2C88458B90868C06872
:104DB00020F080000B68D8600868C06840F04000B0
:104DC0000B68D860002070470220FCE72DE9F04115
:104DD00004460D4617469846069E21E0701CF8B121
:104DE0002EB1FCF70DFCA0EB0800B04218D92068EA
:104DF000C06820F4D0702168C8602068406920F045
:104E0000010021684861202084F8390084F83A00C4
:104E100000BF002084F8380000BF0320BDE8F08107
:104E2000206800682840A84201D1012000E000204D
:104E3000B842D3D00020F1E710B50248FDF73AFFA1
:104E400010BD00003008002010B50248FDF732FF09
:104E500010BD00007008002010B50388CB1AB3F510
:104E6000004F04DD43885B1E1BB2438008E00388CB
:104E7000CB1A13F5004F03DA43885B1C1BB2438047
:104E80000180438801EB03434360D0E901341B1BDD
:104E900000EE103AB8EEC00A80ED030A4368836062
:104EA00090ED010AB8EEC00ADFED0D0A20EE200AEF
:104EB000BDEEC00A80ED070A90ED030A9FED091AC6
:104EC000C0EE010A00EE102AB8EE400A9FED061A65
:104ED000C1EE001A20EEA10A80ED090A10BD000003
:104EE000876DDB3E0000524400606A4700BFFEE76A
:104EF00000B590ED020AD0ED000A30EE600A80EDB8
:104F0000040A90ED090AD0ED080A90ED041A00EEAB
:104F1000810A80ED090A90ED0B1AF0EE410A90ED3E
:104F2000091AB0EE410AFEF77DFE80ED090A90ED08
:104F3000090AD0ED070A90ED041A00EE810A80ED0F
:104F40000A0A90ED0B1AF0EE410A90ED0A1AB0EE43
:104F5000410AFEF767FE80ED0A0A90ED0A0A00BDDD
:104F600090ED010AD0ED050A30EE600AD0ED020A9C
:104F7000B4EEE00AF1EE10FA08DD90ED020AD0ED91
:104F8000050A30EE200A80ED020A19E090ED010AD0
:104F9000D0ED060A30EE200AD0ED020AB4EEE00AA7
:104FA000F1EE10FA08D290ED020AD0ED060A30EECA
:104FB000600A80ED020A03E090ED010A80ED020A2A
:104FC00090ED020A704700BF012002F090FFFBE75E
:104FD00010B5864890F8180798B984480178B0F859
:104FE0000223401C8154401EB0F80203B0F5007F3C
:104FF00006DA7E48B0F80203401C7C49A1F802039F
:1050000093E07BA000F02EF9FCF7FAFA7749D1F88B
:105010001417401A322803D90020744981F8180760
:105020007248B0F81007002859D1704890F8190854
:1050300028BB6E48017890F80C2700F20470815468
:105040006FA000F00FF9694890F80C07401C674901
:1050500081F80C07084690F80C07401E01F2047115
:10506000085C3A2861D10020604981F8120701F2FA
:105070000570FBF76FF95D49A1F8100755E05B4833
:10508000017890F80C2700F20470815463A000F0BE
:10509000E9F8564890F80C07401C544981F80C0771
:1050A000084690F806072C2805D1084690F8050711
:1050B000303881F812074D4890F80C07032834DD8A
:1050C0004A4890F80C07401E5B49085C3A282CD1EE
:1050D000C81CFBF73FF94549A1F8100725E04348F4
:1050E0000178B0F80E2700F54170815453A000F00C
:1050F000B9F83E48B0F80E07B0F5806F06DA3B48C5
:10510000B0F80E07401C3949A1F80E073748B0F82F
:105110000E073649B1F81017884206DB00203349E4
:1051200081F81807012081F8190701222F494A4800
:10513000FDF730FF2D4949A000F094F82B48B0F856
:105140000203042850DD2948B0F80203001F274954
:10515000491C085C2B2847D1481EB0F80203C01E2A
:10516000085C492840D1481EB0F80203801E085C44
:10517000502839D1481EB0F80203401E085C44286C
:1051800032D101F2FF6000214160816000221748A6
:10519000B0F80203001F1549491C0A54481EB0F814
:1051A0000203C01E0A54481EB0F80203801E0A54AF
:1051B000481EB0F80203401E0A54481EB0F802030D
:1051C000001F491EA1F802030020A1F80E0781F874
:1051D0000C07012081F818070020A1F81007FCF740
:1051E0000FFA0249C1F8140710BD0000144E002048
:1051F000526563656976656420495044200D0A0054
:10520000526563656976656420446174612042611A
:10521000636B312021200D0A000000005265636598
:10522000697665642044617461204261636B322059
:1052300021200D0A0000000018550020526563650A
:10524000697665642044617461204261636B332038
:1052500021200D0A000000003008002020257320C6
:10526000000000000FB4054B10B503A9044A0298D2
:1052700002F0DEF810BC5DF814FB0000D17D0008E0
:10528000600300200FB41CB50246002007AC0029C3
:105290000BD0491ECDE90021054B6A4621460698F0
:1052A00002F0C6F8009A002111701CBC5DF814FBD6
:1052B0005F7B000803B401984100009850EAC120C8
:1052C00018BF04204A0D18BF40F0010040F2FF72E1
:1052D000B2EB515F08BF40F00200012808BF052073
:1052E00002B0704702480068C0F302207047000017
:1052F0000CED00E010B5002804DB0A07130E054A88
:10530000135406E00A07140E034A00F00F031B1F94
:10531000D45410BD00E400E018ED00E000487047F0
:10532000640300200000000010B5B94A2DED020B07
:105330002DED0C8B82B00F9921F000409FEDB6CB84
:1053400090422CDBA0F140530E9AA3F17F631A43E5
:105350000FD0B349884202DC16D10E98A0B19DED62
:105360000E0B02B0BDEC0C8B02B0BDE8104001F09A
:1053700043BF0029C1BF9FEDAC0B02B0BDEC0C8B4D
:1053800002B0C8BF10BD16E0012001F089FF02B0D5
:10539000BDEC0C8B02B0BDE8104001F041BFA44A47
:1053A0009FEDA59B9FEDA6AB90425EDAA6499FEDCF
:1053B000A8CB814208DBB0EE4C0AF0EE6C0A02B0DA
:1053C000BDEC0C8B02B010BD9DED0E0B53EC102B01
:1053D00051EC100BFBF772F841EC180B9E480621BC
:1053E000B0EE480AF0EE680A784401F0D9FD53ECBB
:1053F000182B51EC100BFBF761F841EC1B0B974895
:10540000B0EE480AF0EE680A0421784401F0C8FDC5
:1054100053EC182B51EC100BFBF750F853EC192BF5
:10542000FAF7A5FF41EC100B51EC1B0B53EC102BC2
:10543000FBF7B6F841EC100B53EC102B9DED0E0B67
:1054400051EC100BFBF73AF853EC1A2BFBF733F83F
:105450009DED0E1B53EC112BFBF72DF853EC1C2B81
:10546000FBF729F841EC100BA9E79FED7D8B9FED31
:105470007EBB9DED0E0B002953EC192B51EC100B4C
:1054800052DAFAF774FF53EC182BFBF717F841ECDC
:10549000180B77480621B0EE480AF0EE680A784407
:1054A00001F07EFD53EC182B51EC100BFBF706F8C6
:1054B00041EC1D0B6F48B0EE480AF0EE680A04217B
:1054C000784401F06DFD53EC182B51EC100BFAF7FA
:1054D000F5FF53EC192BFAF74AFF41EC190B51EC8D
:1054E000180B04F047FE41EC180B53EC192B51EC50
:1054F0001D0BFBF755F853EC182BFAF7DFFF53ECB5
:105500001A2BFAF7D5FF41EC100B51EC180B53ECAA
:10551000102BFAF72CFF53EC1B2BFAF7CFFF53ECB1
:105520001C2BFAF7C8FF6DE0FAF7C5FF53EC182BF8
:10553000FAF7C4FF41EC180B04F01CFE41EC1A0B07
:1055400000208DED00AB00909DED000B51EC1A0B8F
:1055500053EC102BFAF70BFF9DED000B41EC1C0BED
:1055600053EC102B51EC100BFAF7A8FF53EC182B4F
:10557000FAF7A1FF53EC1C2BFBF712F841EC1C0BC4
:105580003D48B0EE480AF0EE680A0621784401F082
:1055900007FD53EC182B51EC100BFAF78FFF41EC81
:1055A0001D0B3648B0EE480AF0EE680A0421784434
:1055B00001F0F6FC53EC182B51EC100BFAF77EFFC0
:1055C00053EC192BFAF7D3FE41EC100B51EC1D0BE9
:1055D00053EC102BFAF7E4FF53EC1A2BFAF76EFF9B
:1055E00053EC1C2BFAF7C3FE41EC100B53EC102BC1
:1055F0009DED000B51EC100BFAF7B9FE53EC1B2B91
:10560000FAF75CFF41EC100BD9E600000000000047
:105610000000F03F00000000182D4454FB21094019
:105620000000F07F0000000000000000000000000B
:105630000000E03F00000000000000000000F03F1C
:10564000075C143326A6913C0000603C000000007B
:10565000182D4454FB21F93FB48F0000C28F000085
:10566000000000000000E03F0000000000000040DB
:10567000FE8E00000C8F0000108E00001E8E0000B9
:1056800070B59B482DED020B2DED068B079D25F087
:105690000044A04218DC9748844202DC0AD10698F4
:1056A00040B19DED060BBDEC068B02B0BDE870402D
:1056B00001F0A2BD002DCCBF9FED8F0B9FED900B95
:1056C000BDEC068B02B070BD8F48A04215DD8F483F
:1056D000A042D8BF4FF0FF3458DD9DED060B51ECD2
:1056E000100BFFF7E7FD042808BF01F0B9FD9DEDA1
:1056F000060BBDEC068B02B070BD9DED060B51ECA8
:10570000100B02F059FBCDE9060181489FED828B19
:10571000A0423CDD8248A0421FDD00249FED82AB09
:105720009DED060B53EC1A2B51EC100BFAF71FFEF4
:105730009DED060B41EC190B53EC1A2B51EC100BA1
:10574000FAF7BCFE53EC182BFAF7B2FE53EC192B08
:10575000FAF726FFCDE9060149E09DED060B01248D
:1057600053EC182B51EC100BFAF701FE9DED060BD4
:1057700041EC190B53EC182B51EC100BFAF798FE77
:1057800053EC192BFAF70CFFCDE906012FE068481E
:10579000A0421FDD02249FED689B9DED060B53EC9C
:1057A000192B51EC100BFAF789FE53EC182BFAF772
:1057B000DEFD9DED060B41EC180B53EC192B51EC63
:1057C000100BFAF775FE53EC182BFAF7E9FECDE94A
:1057D00006010CE09DED060B032453EC102B9FED0E
:1057E000580B51EC100BFAF7DBFECDE906019DEDED
:1057F000060B53EC102B51EC100BFAF75FFE41EC4B
:10580000180B53EC182BFAF759FE41EC190B4E48C4
:105810000621B0EE490AF0EE690A784401F0C0FBB7
:1058200053EC182B51EC100BFAF748FE41EC180B17
:105830004648B0EE490AF0EE690A0521784401F0C5
:10584000AFFB53EC192B51EC100BFAF737FE41EC80
:10585000100B51EC180B53EC102B002C0EDAFAF74E
:1058600086FD9DED061B53EC112BFAF727FE9DEDEF
:10587000061B53EC112BFAF71EFE35E0FAF777FD05
:105880009DED061B53EC112BFAF718FE41EC100BA3
:105890002F48784400EBC40090ED001B51EC100B36
:1058A00053EC112BFAF704FE9DED061B53EC112B64
:1058B000FAF7FEFD41EC100B2648784400EBC400DB
:1058C00090ED001B51EC100B53EC112BFAF7F3FD8C
:1058D00041EC100B002DA2BFBDEC068B02B070BDD9
:1058E00051EC100B81F0004141EC100B01E700007E
:1058F000000010440000F07F182D4454FB21F93FB4
:10590000182D4454FB21F9BF0000DC3F0000203E6D
:105910000000F33F00000000000000000000F03F26
:105920000000E63F00000000000000000000004012
:105930000080034000000000000000000000F83F6D
:10594000000000000000F0BFC28C0000788C000056
:10595000028C0000BA8B000070B56B4E2DED040B6D
:105960002DED028B82B0DDF81CC0DDE905235C4221
:105970002CF000411C4341EAD474049D22F0004005
:10598000B44205D86C422C4340EAD474B4420BD9DB
:105990009DED061B9DED040B02B0BDEC028B04B027
:1059A000BDE8704001F032BCACF14054A4F17F641A
:1059B0001C430BD0022404EAAC7444EAD2740543BD
:1059C0009FED538B9FED542B07D015E09DED040BFD
:1059D00051EC100B02F00DF942E0002C11BF012C2C
:1059E0009DED040B02B0BDEC028B04BF04B070BD92
:1059F000022C38D0032C3BD00B439FED491B9FED6D
:105A00004A0B0AD0B14218D1B04209D121F08041ED
:105A100020F08040079105900FE0002A15DA10E091
:105A2000434B7B44002C08BF93ED000B0DD0012CA1
:105A300010D0022C17D0032C1AD0B0421DD1002A4E
:105A400003DAB0EE410AF0EE610A02B0BDEC028B5F
:105A500004B070BD93ED000B51EC100B81F00041D0
:105A600041EC100BF1E7B0EE480AF0EE680AECE703
:105A7000B0EE420AF0EE620AE7E7401A00153C2851
:105A8000C8BF8DED000B19DCBCF1000FBEBF10F1DB
:105A90003C0F9FED290B8DED000B0FDB9DED060BF1
:105AA00053EC102B9DED040B51EC100BFAF778FD25
:105AB00002F082F902F09DF8CDE90001002C08BF48
:105AC0009DED000BC1D0012C10D0022C9FED1C0BC2
:105AD00053EC102B9DED000B51EC100B0DD0FAF791
